:020000040800F2
:10000000302B00205902000805570008B14D0008A8
:1000100065550008E51A000831700008000000006E
:10002000000000000000000000000000ED69000872
:10003000191E00080000000071640008EF69000844
:1000400073020008730200087302000873020008BC
:1000500073020008730200087302000873020008AC
:10006000730200087302000873020008C91D00082B
:10007000730200087302000873020008730200088C
:100080007302000873020008B11700087302000829
:10009000730200087302000873020008730200086C
:1000A000C56A0008F56A0008E56A0008D56A000814
:1000B0007302000800000000000000007302000846
:1000C000730200087302000873020008730200083C
:1000D000730200087302000873020008730200082C
:1000E0007302000873020008000000000000000016
:1000F0000000000000000000000000000000000000
:10010000000000007302000800000000ED66000817
:1001100000000000000000007302000873020008E5
:1001200073020008D91D000873020008730200085A
:100130007302000800000000000000000000000042
:100140007302000873020008730200080000000038
:1001500073020008730200087302000873020008AB
:100160007302000873020008730200080000000018
:100170007302000873020008000000000000000085
:1001800073020008730200087302000800F002F80E
:1001900000F053F80AA090E8000C82448344AAF1CE
:1001A0000107DA4501D100F048F8AFF2090EBAE8CC
:1001B0000F0013F0010F18BFFB1A43F0010318479B
:1001C000F4A3000014A40000103A24BF78C878C13A
:1001D000FAD8520724BF30C830C144BF04680C604D
:1001E000704700000023002400250026103A28BF95
:1001F00078C1FBD8520728BF30C148BF0B60704799
:10020000662908F0BC81642900F0F480732900F0AD
:100210001E85002070471FB508F0A7F99DE8030070
:1002200000F040FA00F01CFD04000020002107F05F
:1002300085FCE0601FBD10B510BD00F02FFE11461B
:10024000FFF7E9FF07F034FB00F04DFE03B4FFF7C2
:10025000F2FF03BC00F0BEFE094880470948004792
:10026000FEE7FEE7FEE7FEE7FEE7FEE7FEE7FEE766
:10027000FEE7FEE704480549054A064B70470000C3
:100280007D6A00088D01000830250020302B0020F9
:10029000302700203027002070B5064600F0E6F930
:1002A000056806F10B0020F00704B4429CBF002053
:1002B00070BD2B466A68BAB11068A04210D304F131
:1002C000080188423CBF5068586007D35168101934
:1002D00041601168091B016058601460101D70BDF9
:1002E00013465268002AE7D12146284600F0C6F995
:1002F0000028DED170BD70B50446051F00F0B6F9C8
:100300000068002C14BF446870BD002C18BFAC42BC
:100310003CBF20466468F8D301680A18AA4218BF97
:10032000456003D12A6805461144016028684119D7
:10033000A1421CBF6C6070BD61686960216808449F
:10034000286070BD0FB41CB5074B06AA7B446946F4
:100350000090059800F049FC0020694600F058FC28
:100360001CBC5DF814FB0000C10800000FB41CB5F4
:100370000C0007AA009001D02044401E074B7B448C
:1003800069460190069800F030FC002C03D06946C5
:10039000002000F03DFC1CBC5DF814FB9908000037
:1003A00070B50C460546012A05D02878800600D590
:1003B000EA69002302E0012305E05B1C934202D2BC
:1003C000E05C0028F9D1A869E618C01AA861286A7B
:1003D000184428622846AFF3008004E0D5E90121E3
:1003E00014F8010B9047B442F8D32846AFF30080CD
:1003F00070BD00002DE9F041064600241068752903
:10040000314616A510D0AFF30080002802DA404232
:1004100013A507E031688A0701D512A502E0490754
:1004200004D511A5012401E0AFF3008000210A22C8
:1004300006F1240709E0B0FBF2FCB0FBF2F302FB8B
:100440001C00303078541846491C0028F3D123464C
:100450002A463046BDE8F04100F05AB900000000DD
:100460002D0000002B000000200000002DE9F047C7
:100470004FF0000A89460446C0F820A02046E168F3
:100480008847002876D0252806D0D4E90121904756
:10049000206A401C2062F1E7E16820460025884779
:1004A000C4F81CA006460027C4F818A02A2E09D0BC
:1004B000304606F051FE38B304EB8708303EC8F8EA
:1004C000186019E059F8041B204604EB870291617B
:1004D000E1688847012F064618D1E069002820DA34
:1004E00025F020051DE0D8F8180000EB800006EB91
:1004F00040003038C8F818002046E16888470646B2
:1005000006F02AFE0028EED1012F0AD02E2E08D1A7
:100510002046E16888477F1C0646022F45F02005EB
:10052000C4DBA069002803DA404245F00105A06160
:10053000E80701D025F01005B6B1A6F14100192851
:1005400002D8203645F400654A46314620462560EB
:100550004D46FFF755FE58B1012806D0ED1D25F098
:10056000070000F1080989E704E005F1040985E7BF
:1005700030468AE7206ABDE8F08740EA0103024678
:1005800030B59B0710D14FF0013400E008C208C914
:100590001D1B9D4315EAC41FF8D013F0FF0102F89C
:1005A000011B0DD01B0AF8E711F8013B002B02F8E4
:1005B000013B05D011F8013B002B02F8013BF3D1C0
:1005C00030BD10B5431C02E010F8011B71B181076A
:1005D000FAD14FF0013202C88C1A8C4314EAC211CE
:1005E000F9D0C01A0A0603D0C01E10BDC01A10BD33
:1005F0000A0401D0801E10BD0902FCD0401E10BDAF
:10060000421E12F8013F002BFBD111F8013B002BD9
:1006100002F8013BF9D170474FF0000200B51346D4
:1006200094469646203922BFA0E80C50A0E80C5012
:10063000B1F12001BFF4F7AF090728BFA0E80C50C3
:1006400048BF0CC05DF804EB890028BF40F8042BBC
:1006500008BF704748BF20F8022B11F0804F18BF29
:1006600000F8012B7047704770477047004870478B
:10067000D8240020704770477047704738B504464B
:100680000A4600206946AFF30080002808BF38BD45
:1006900002460099204600F0E7FA012038BD01200B
:1006A00000F0F4BBF8B5AFF30080054600200C461F
:1006B000102000BF0646A819A0420DD9324669464F
:1006C0000020AFF30080070008BF00F0DFFB0098B8
:1006D000A04218BF0546C419FFF7C8FF05600746CA
:1006E000F01D20F007004619284600F00AF8B44231
:1006F00008BFF8BDA21B31463868BDE8F84000F0DD
:10070000B3BA00210160C0E90110704710207047A2
:100710002DE9F0470D4699469246044600F124081B
:100720000168880604D5E06921F01001216000E02D
:100730000120A84201DD471B00E00027A1697A19CA
:1007400002EB0900081AA0612078C00602D42046F6
:10075000AFF30080002608E0D4E901211AF8060072
:100760009047206A401C761C20624E45F4DB2078BE
:10077000C0060AD52046AFF3008006E0D4E9012187
:1007800030209047206A401C2062381EA7F10107E4
:10079000F4DC07E0D4E9012118F805009047206A4D
:1007A000401C2062281EA5F10105F3DC2046AFF3B2
:1007B00000802078000602D50220BDE8F0870120E5
:1007C000FBE770472DE9FF4F0C461E464FF0FF3701
:1007D0008BB0D2E90001DDF860800A908A46C1F34F
:1007E0000A5505B93D46002108464FF00000BAF110
:1007F000000F00F4400005DA00EB80004FF44001E8
:1008000001EA50004FEA9059B9F1010F00DDB946F5
:100810000A9850EA4A000ED044F61050A5F2FF356F
:1008200045432F14B8F1000F1ED07542291E1EDD5E
:10083000C9F100021CE0B8F1010F4FF0000001D037
:10084000302103E0F24305E02154401CB042FBDBC1
:1008500030460022002121540B99C1F80880C1E9DB
:1008600000200FB0BDE8F08FBD1B6D1CDEE74A46CF
:1008700000DA694206A800F097FA06AB93E8070091
:1008800003AB83E8070050460A9900F0C9FB8DE8E6
:100890000700A0F500501F3800900398002D0ADDD6
:1008A00042F21F014A460844002303A90390684608
:1008B00000F032FE09E0A0F500504A461F38002340
:1008C00003A90390684600F03CFE8DE80700000491
:1008D000000C03D04FF0FF30410800E01046B8F1A3
:1008E000000F03D00022009215461EE0751E05D4AD
:1008F00000F0D4F9303262556D1EF9D5B3460122AD
:10090000084302D000227F1C04E02078302801D167
:1009100000227F1E002A099784D01DE0112D07DADE
:1009200000F0BCF9303262556D1C50EA0102F5D17D
:10093000084302D00098C8B10EE00021681E05E00F
:10094000235C625C63542254401E491C8142F7DBE5
:10095000AB46A81B401E0990002004F80B000B9822
:10096000099AC0F80880C0E9002B7AE711264FF0F9
:10097000000857E72DE9F04F88460446D21D22F0C3
:10098000070191B0D1E90001CDE90A0106F068FB49
:1009900002460B98C00F01D02D2007E02068810788
:1009A00001D52B2002E0202101EAC000032A099092
:1009B00001D0072A05DB03464146204600F0B4F982
:1009C0000BE12078800601D5E06900E00620B8F14F
:1009D000650F814606D0B8F1660F18D0B8F1670FE1
:1009E00070D131E00020B9F1110F009001DB11232B
:1009F00001E009F101030AAA01A90CA8FFF7E2FE30
:100A0000DDE90C70002609F10105834647E001206D
:100A10004B4600904FF000470AAA01A90CA8FFF727
:100A2000D1FEDDE90DB00C995D46002610B909F143
:100A300001000D18B9EB050003D4C0F1FF3609F130
:100A40000105A5EB09002BE0B9F1010F01DA4FF028
:100A500001090020B9F1110F0090484601DD112372
:100A600000E003460AAA01A90CA8FFF7ABFEDDE9E6
:100A70000C704D4600268346207800070AD4AB450B
:100A800000DA5D4601A8012D04DD411911F8011CB1
:100A9000302907D04F4502DA17F1040F04DA01209C
:100AA00082460FE06D1EEEE7002F02DCED1B3E4498
:100AB00003E0781CA84200DD7D1CB81B00F1010A90
:100AC0004FF000472078000703D4AA4501DB4FF020
:100AD000FF3A0021B7F1004F0DF143088DF84310A4
:100AE00024D002202B23002F01DA7F422D230A215C
:100AF000021EA0F1010000DC5FB197FBF1FC97FB47
:100B0000F1F201FB1C7C17460CF1300C08F801CD0A
:100B1000EEE7A8F1010003702188090501D5452100
:100B200000E06521A0F1010800F8011C09980FA957
:100B3000A1EB0807FF1D00B10120411901EBEA708C
:100B4000A1693844081A401EA0612078C00602D46A
:100B50002046AFF30080099828B1D4E901219047DD
:100B6000206A401C20622078C00622D52046AFF3C0
:100B700000801EE0002E04DBB34502DD01A8805D8D
:100B800000E03020D4E901219047206A401C206217
:100B9000761CAAF101005FEA000A0AD100F060F8B1
:100BA000C0680168405CD4E901219047206A401C7C
:100BB0002062281EA5F10105DCDC07E0D4E9012153
:100BC00018F8010B9047206A401C2062381EA7F1DC
:100BD0000107F3DC2046AFF30080032011B041E6AB
:100BE00001694A1C02610878704700B58FB0CDE9F1
:100BF00001310021059105497944CDE903101146E1
:100C00006846FFF733FC0FB000BD0000E5FFFFFFB3
:100C10000A6802F8010B0A607047D1E900239A4282
:100C200002D2531C0B601070704710B5436913B1AA
:100C3000AFF3008001E0FFF7B3FB012010BD127895
:100C400000F124010A7000224A700122EDE71168C8
:100C50004FF0FF32E9E7000000487047D024002041
:100C600000487047F0240020034640688C46002866
:100C700018BF88423CBF03464068F8D31868184440
:100C8000884207D00CF1030020F00700001D411A34
:100C9000521A0146081D0A60FFF72DBB30B5B0F1AE
:100CA0000A024FEA900E71F100034EEA817EB0EB2A
:100CB0000E0061EB91014FEA101E4EEA017E10EB2F
:100CC0000E0041EB11114FEA102E4EEA016E10EBAF
:100CD0000E0041EB11214FEA104E4EEA014E10EB8F
:100CE0000E0041EB1141401841F100014FEAD000E4
:100CF00040EA41704FEAD10110EB80054FEA8104D0
:100D000044EA907444EB01046D1944EB0404521B53
:100D1000A3414FF0000348BF0A3200D530BD401C4C
:100D200041F1000130BD00002DE9F0411F460446AD
:100D300003260168072A01F4006004DB08B116A548
:100D400005E016A503E008B115A500E015A521F002
:100D500010002060A069C01EA0610FB1401EA061FC
:100D60002046AFF300804FB1D4E9012138469047C7
:100D7000206A401C2062C01C206206E0206AFAE75C
:100D8000D4E9012115F8010B9047761EF8D22046D0
:100D9000AFF30080BDE8F0814E414E006E616E0001
:100DA000494E4600696E66002DE9F04781461646B9
:100DB0008AB0354878440DC88DE80D003248784433
:100DC000801C03AC0DC884E80D0041F69B3008443C
:100DD000372190FBF1F290FBF1F5A5F1800501FBC5
:100DE00012041B3C02D56442012000E00020DFF821
:100DF00098A080460027FA44AAF1BE0A0EE0E00758
:100E00000AD03246684607EB470101230AEB81010D
:100E100000F097FB8DE8070064107F1C002CEED1DA
:100E2000194F7F44AE3F19E0E80715D007EB0410D7
:100E30000DF1180A90E80E008AE80E00C068F04232
:100E400001D1981908903246012306A903A800F0A1
:100E500078FB03AB83E807006D10641C002DE3D121
:100E60004FF0010332466946B8F1000F03A802D0E3
:100E700000F052FB01E000F064FBC9E90001C9F891
:100E800008200AB0BDE8F087E497000010B500F034
:100E900039F8BDE8104000F02FB870477546FFF7ED
:100EA000DBFEAE4605006946534620F00700854646
:100EB00018B020B5FFF7DEF9BDE820404FF000067E
:100EC0004FF000074FF000084FF0000B21F0070132
:100ED000AC46ACE8C009ACE8C009ACE8C009ACE875
:100EE000C0098D46704710B50446AFF30080204618
:100EF000BDE81040FFF7AAB9002801D000F06AB899
:100F00007047000010B5012805D0002103A000F0B3
:100F100067F8012010BD09A1F8E7000053494752C6
:100F2000544D454D3A204F7574206F6620686561B9
:100F300070206D656D6F7279000000003A20486581
:100F40006170206D656D6F727920636F727275705C
:100F5000746564004FF0013C50F8042B51F8043BD9
:100F60009A4221D1A2EB0C03934313EACC1317D17D
:100F700050F8042B51F8043B9A4215D1A2EB0C0314
:100F8000934313EACC130BD150F8042B51F8043BD4
:100F90009A4209D1A2EB0C03934313EACC13DBD0A2
:100FA0004FF00000704700BFD01A01BAB1FA81F1CA
:100FB00001F0180122FA01F0CB40C1F12001DBB2AF
:100FC000C0B2C01A2CFA01F3D11A914311EAC3112D
:100FD000E6D1704701491820ABBEFEE726000200AB
:100FE00070B505460C460A2000E06D1C00F011F8B3
:100FF00035B128780028F8D102E0641C00F009F827
:1010000014B120780028F8D1BDE870400A20AFF371
:10101000008008B569468DF800000320ABBE08BD0E
:101020005FEA400C08BF91F0000F4FEA8C234FEAB3
:10103000C12243EA51514FEA1C5018BF00F5F0405D
:101040004FEA300018BF41F000415FEA6C5C00F0ED
:101050002980BCF1FF3F08BF40F080407047130C6F
:1010600006BF12044FF0100C4FF0000C130E04BF1B
:1010700012020CF1080C130F04BF12010CF1040C46
:10108000930F04BF92000CF1020CD30F04BF520067
:101090000CF1010C11464FF00002A0F11F00A0EB73
:1010A0000C00704711F0004F08BF704731F000414D
:1010B0003FF4D5AF0B0C06BF09044FF0100C4FF0F6
:1010C000000C0B0E04BF09020CF1080C0B0F04BF3F
:1010D00009010CF1040C8B0F04BF89000CF1020C08
:1010E000CB0F04BF49000CF1010CCCF12003A0EBA5
:1010F0000C0022FA03F302FA0CF241EA030100F1B8
:101100000100704720F07F4C80EA030023F07F4706
:10111000ACEB070303F57C5300F0004003F1FF0341
:101120002DE980494FEA154B09B44FEA144325EAEB
:101130000B4E24EA03480FF2042606EB1327490856
:101140003E785FEA320203FB0667C7F5000707FB3C
:1011500006F64FEA54374FEAD64606F1020607FB79
:10116000066CCCF1005C4FEA1C472CEA074C07FBED
:1011700006F40CFB06F504EB15464FEA961634BF51
:1011800000204FF000404FEAD13706FB07FC4FEA42
:101190001C4C0CFB0BF7D21B03FB0CF761EB07019C
:1011A0000CFB0EF7B0EB074072EB17420CFB08F795
:1011B00034BFA2EB0742B2EB074261EB17414FEAA3
:1011C0000C444FEA910706FB07FC4FEA1C4C0CFB52
:1011D0000BF7B0EBC74072EB573203FB0CF734BF91
:1011E000A2EBC742B2EBC74261EB57310CFB0EF7E3
:1011F000B0EBC70072EB57720CFB08F734BFA2EBE1
:10120000C702B2EBC70261EB5771039F4FEA8161DE
:1012100041EA921104EBCC044FEAD1374FEA8262E3
:1012200006FB07FC42EA90124FEA80604FEA1C4C32
:101230000CFB0BF7D21B03FB0CF761EB07010CFB5C
:101240000EF7B0EB074072EB17420CFB08F734BF08
:10125000A2EB0742B2EB074261EB17414FEA8C5514
:101260004FEA910704EB9C2406FB07FC4FEA1C4C59
:101270000CFB0BF7B0EBC74072EB573203FB0CF7DC
:1012800034BFA2EBC742B2EBC74261EB57310CFB54
:101290000EF7B0EBC70072EB57720CFB08F734BFC8
:1012A000A2EBC702B2EBC70261EB577115EB4C25FD
:1012B0004FEA816141EA92114FEA82624FEAD137E7
:1012C00042EA901206FB07FC44F100044FEA8060FA
:1012D0004FEA1C4C0CFB0BF7D21B03FB0CF761EB2A
:1012E00007010CFB0EF7B0EB074072EB17420CFB4B
:1012F00008F734BFA2EB0742B2EB074261EB17419C
:1013000015EB1C154FEA813141EA92414FEA8232D6
:1013100042EA90424FEA80304FEA0C7644F10004F2
:1013200048EA03434EEA0B484FF0000EB2EB080CBC
:1013300071EB030724BF624639464EEB0E0E4FF0A9
:10134000000B0018524149414BEB0B0BB2EB080C60
:1013500071EB03077BF1000B24BF624639464EEB6D
:101360000E0E4FF0000B0018524149414BEB0B0B96
:10137000B2EB080C71EB03077BF1000B24BF624654
:1013800039464EEB0E0E51EA020718BF46F0010631
:1013900016EB0E7655F1000254F1000103D5BDE8BD
:1013A0008901BDE80088BDE88901BDE80048B6199B
:1013B000524141EB0101A3F10103704780807F7E20
:1013C0007D7C7B7A797877767675747372717170BB
:1013D0006F6E6E6D6C6C6B6A6A696868676666656D
:1013E0006464636362616160605F5F5E5E5D5D5CFB
:1013F0005C5B5B5A5A59595858575756565555556C
:101400005454535352525251515050504F4F4F4ECB
:101410004E4D4D4D4C4C4C4B4B4B4A4A4A49494919
:10142000484848474747474646464545454444445B
:10143000444343434342424242414141002B9C4684
:1014400030D477002BD01CB54FEA370703B44FF0E8
:1014500010004FF01001BAF1000F06D0BCF1000FE0
:10146000DCBF40F0080040F008014FF000000FBC66
:10147000BDE810400BF1010BBBF1010F08BF5FEAA3
:10148000170722BF12F1010211F101014FF00041D3
:1014900043F1000300F0004043EA00007047F9D335
:1014A0005708D0E746EA064613F1400F4FEA1646C2
:1014B0001FDD13F1200FDFBF16430A460021203342
:1014C0005B42BED0C3F1200746EA064602FA07F7A0
:1014D0004FEA164646EA0706C3F1200722FA03F24E
:1014E00001FA07F721FA03F14FF0000342EA07027D
:1014F000A7E746EA020646EA06464FEA164646EAE5
:101500000106BCBF46EA0646360C4FF000034FF01A
:1015100000024FF0000194E72DE9804C9A46934673
:1015200070B491E8380007C831EA400C48BF34EA8B
:10153000430C03D5FFF7E6FDFFF780FFF0BCBDE8E5
:10154000008C2DE9804C9A46934670B491E838009F
:1015500007C810F0804F08BF13F0804F03D100F090
:1015600005F8FFF76BFFF0BCBDE8008C20F07F476B
:1015700080EA030023F07F4C07EB0C03A3F57C53B8
:1015800000F00040A3F1FE0392F0000F00F0B380E2
:1015900095F0000F00F077802DE901494FEA1140E6
:1015A0004FEA144621EA004800FB06FC24EA0647FD
:1015B00008FB06F607FB08F800FB07F718EB0648E0
:1015C0004CEB164C4FEA124B18EB07484FEA154606
:1015D0004CEB174022EA0B4E0BFB06FC25EA0647B4
:1015E0000EFB06F607FB0EFE0BFB07F71EEB064E87
:1015F0004CEB164C4FF000061EEB074E4CEB174B16
:1016000018EB0B0840F1000018EB0E0B58EB00082C
:1016100040F100008F1A4FF000013CBFC943661B28
:1016200014BFB5EB040C00213CBFC943F61B4FEAC5
:1016300017444EEA8E0E27EA04454FEA1C4704FB86
:1016400007622CEA074C05FB07F70CFB05F604FBC9
:101650000CFC16EB074642EB174216EB0C4642EB2E
:101660001C421BEB060658EB0202414146EA9E066D
:1016700001D5BDE80189B619524141EB0101A3F141
:101680000103BDE801894FEA14454FEA114724EAF6
:10169000054621EA074C05FB07F406FB07F70CFBA0
:1016A00006F105FB0CFC11EB074144EB17444FEA34
:1016B000124711EB0C4144EB1C4422EA074C05FB9A
:1016C00007F206FB07F70CFB06F605FB0CFC16EB16
:1016D000074642EB174216EB0C4642EB1C456A18D4
:1016E00054F1000148BF7047B619524141EB010166
:1016F000A3F10103704795F0000F37D04FEA114274
:101700004FEA144721EA024624EA074C02FB07F19C
:1017100006FB07F70CFB06F402FB0CFC14EB07447A
:1017200041EB17414FEA154714EB0C4441EB1C41C8
:1017300025EA074C02FB07F506FB07F70CFB06F64C
:1017400002FB0CFC16EB074645EB174516EB0C4667
:1017500045EB1C42121951F1000148BF7047B61900
:10176000524141EB0101A3F1010370474FEA1445D7
:101770004FEA114724EA054621EA074C05FB07F129
:1017800006FB07F70CFB06F24FF0000605FB0CFC0E
:1017900012EB074241EB174112EB0C4251EB1C419B
:1017A00048BF7047921841EB0101A3F10103704754
:1017B00010B5024800F0D9FD10BD0000A82000209F
:1017C00070B50546AC6A606D00F0500098BB606D66
:1017D00040F4007060652068006800F00800A8B15F
:1017E000206803F0DCFB10B32068C06800F40050F0
:1017F000E8B9606D20F480706065606D00F4805021
:10180000A8B9606D40F00100606510E02068C06814
:1018100000F0020058B9606D20F480706065606D62
:1018200000F4805018B9606D40F0010060652046FA
:1018300000F098FD0CE0FFE7606D00F0100018B1BB
:10184000204600F091FD03E0E06C416B284688479C
:1018500070BD70B50546AC6A606D40F040006065D3
:10186000A06D40F00400A065204600F07DFD70BD35
:1018700070B50446A56A284600F075FD70BD0000ED
:1018800070B50446206803F07BFB002836D1206841
:1018900080681B49084048B1606D40F010006065E9
:1018A000A06D40F00100A065012070BD206803F02C
:1018B00051FB01F01BFB05461AE0206803F060FBBA
:1018C00010B9206803F046FB01F010FB401B022812
:1018D0000ED92068006800F0010048B9606D40F042
:1018E00010006065A06D40F00100A0650120DCE7FC
:1018F0002068006800F001000028DED00020D4E756
:101900003F00008010B52DED088B6449086806F093
:101910008AFB41EC1B0B9FED620B53EC102B06F086
:1019200095FB41EC1A0B9FED600B53EC102B06F06E
:101930004DF941EC190B06F049FB5D49C860574968
:10194000486806F070FB41EC1B0B9FED550B53EC08
:10195000102B06F07BFB41EC1A0B9FED530B53EC65
:10196000102B06F033F941EC190B06F02FFB504910
:1019700088604A49886806F056FB41EC1B0B9FEDD6
:10198000480B53EC102B06F061FB41EC1A0B9FED5A
:10199000460B53EC102B06F019F941EC190B06F02D
:1019A00015FB434908603D49C86806F03CFB41EC23
:1019B0001B0B9FED3B0B53EC102B06F047FB41EC50
:1019C0001A0B9FED390B53EC102B06F0FFF841EC8E
:1019D000190B06F0FBFA3649486008468068A0F209
:1019E0007C6000EE100AF8EE400A9FED321A80EE9D
:1019F000810ADFED310A20EE200AB0EE408AB3EE14
:101A00000E0AB4EEC08AF1EE10FA06D39FED2B0A4F
:101A1000B4EEC08AF1EE10FA03DD9FED290AB0EEB4
:101A2000408A9FED280AC8EE000ABDEEE00A10EEDB
:101A3000100A64214843244988601D480068C0EBAF
:101A4000001040006421B0FBF1F048431E490860DB
:101A50001748406800EBC00101EB00106421B0FBA7
:101A6000F1F048431849486008460068B0F5FA6F3D
:101A700001D20020086014484068B0F5FA6F02D225
:101A800000201149486010488068962802D2002042
:101A90000D498860BDEC088B10BD00004C23002070
:101AA000C3F5285C8FC2E93F0000000000004C40F5
:101AB0004C2200200000DC4200007A440020CB468B
:101AC000000000000000C8425C22002010B503495D
:101AD000C86805F051FE0249C86010BD4C220020C4
:101AE0005C22002000BFFEE710B500230122284938
:101AF000284805F05CFC284A0321264805F033FB02
:101B0000264A0421234805F02EFB254A05212148B9
:101B100005F029FB234A06211E4805F024FB1D4839
:101B200005F064FC01231A4619491F4805F03FFCE3
:101B30001E4A03211C4805F016FB1D4A04211A48C1
:101B400005F011FB1B4A0521174805F00CFB1A4A4A
:101B50000621154805F007FB134805F047FC022352
:101B600001220B49154805F022FC154A03211348B0
:101B700005F0F9FA134A0421104805F0F4FA124A64
:101B800005210E4805F0EFFA0C4805F02FFC10BDBA
:101B9000ED7900085C2300200D4F0008C14E0008BD
:101BA000094F0008C54E000888230020094E000890
:101BB000BD4D0008054E0008C14D0008B4230020AB
:101BC0007D4E0008514E0008794E000843F69821DA
:101BD000884205D90121124A11710321114A11705D
:101BE00043F2C82188420FD90F490988491C0E4A7F
:101BF000118011460988642909DB0121084A117105
:101C00000321084A117002E00021074A118042F2C4
:101C10001071884202D20021014A11717047000000
:101C2000C42400202400002032000020502805DDBC
:101C30000121114A51710321104A1170412811DD0F
:101C40000F490988491C0E4A11801146098840F63F
:101C5000B832914209DB0121074A51710321074A39
:101C6000117002E00021064A1180322802DA0021B8
:101C7000014A517170470000C42400202400002054
:101C80003400002010F10A0F05DA0121104A917189
:101C90000321104A1170002810DA0F490988491CE5
:101CA0000D4A118011460988B1F5FA7F09DB01213F
:101CB000074A91710321074A117002E00021064A88
:101CC0001180052802DD0021014A91717047000052
:101CD000C424002024000020360000204EF660219D
:101CE000884205D90121124A51700321114A11700D
:101CF0004CF25031884210D90F490988491C0E4ACC
:101D0000118011460988B1F57A7F09DB0121084A63
:101D100051700321074A117002E00021064A118028
:101D20004BF68031884202D20021014A517070473F
:101D3000C4240020240000202E00002044F2506122
:101D4000884205D90121124AD1700321114A11702C
:101D5000B0F57A5F10D910490988491C0E4A1180E4
:101D600011460988B1F5FA7F09DB0121084AD170D3
:101D70000321084A117002E00021074A118043F64E
:101D80009821884202D20021014AD1707047000098
:101D9000C4240020240000203000002080ED030A2D
:101DA000C0ED040A80ED051ADFED061AC0ED071A32
:101DB000DFED041AC0ED091ADFED021AC0ED0B1AAF
:101DC000704700000000000010B5024800F02AFE35
:101DD00010BD00000C21002010B5024800F022FECA
:101DE00010BD0000B821002030B590F8444004F048
:101DF0001C050124AC40056C6C6004686360846859
:101E0000102C04D10468A2600468E16003E0046857
:101E1000A1600468E26030BD704772B600BFFEE7A3
:101E2000F0B52DED048B83B004460D4616462846CA
:101E300006F0F9F841EC190B9FED0E0B53EC102B4B
:101E400005F06CFF41EC180B05F08EFE0746384696
:101E500006F0E4FA41EC180B02968DED008B234658
:101E600006A240210848FEF781FA074803B0BDECFE
:101E7000048BF0BD0000000000408F40257320253A
:101E80002E3266202573000084240020704770479E
:101E900070477047704700002DE9F84F05460C4623
:101EA0004FF0000A00200090FE49E068884200D010
:101EB00000E000BF00BF95F85000012802D10220C9
:101EC000BDE8F88F012085F8500000BF286803F0B6
:101ED00061F8002872D1606805281AD86068022865
:101EE00006D0032807D0042808D005280DD108E023
:101EF0000C2060600CE01220606009E01820606037
:101F000006E04FF48070606002E00620606000BF71
:101F100000BF2968D4E9002001F1300CC0F3012B87
:101F20000CEB8B03D3F800C000F01F0E4FF01F0B1B
:101F30000BFA0EFB2CEA0B0C00F01F0BC2F3846EA5
:101F40000EFA0BFE4CEA0E0CC3F800C000BF286866
:101F500003F020F88146286803F00DF88046B9F1B7
:101F6000000F2AD1B8F1000FFBD1A26821682868C0
:101F700003F026F860692968C968C1F3C101490006
:101F800000FA01F72069042819D02868226821691D
:101F900000F1600C0CEB8103D3F800C0DFF808B34C
:101FA0000CEA0B0C02F0F84B4BF0004B4BEA070B22
:101FB0004CEA0B0CC3F800C000BFA8E0B8E1002158
:101FC000286802F0CFFFC0F3120030B90021286862
:101FD00002F0C8FFC0F3846007E00021286802F027
:101FE000C1FF90FAA0F0B0FA80F02168C1F31201AD
:101FF00019B92168C1F3846104E0216891FAA1F163
:10200000B1FA81F1884204D100221146286802F019
:10201000F1FF0121286802F0A5FFC0F3120030B9DA
:102020000121286802F09EFFC0F3846007E00121CF
:10203000286802F097FF90FAA0F0B0FA80F02168CB
:10204000C1F3120119B92168C1F3846104E0216868
:1020500091FAA1F1B1FA81F1884204D10022012163
:10206000286802F0C7FF0221286802F07BFFC0F356
:10207000120030B90221286802F074FFC0F38460B6
:1020800007E00221286802F06DFF90FAA0F0B0FA94
:1020900080F02168C1F3120119B92168C1F384618C
:1020A00004E0216891FAA1F1B1FA81F1884204D1EA
:1020B00000220221286802F09DFF0321286802F017
:1020C00051FFC0F3120030B90321286802F04AFF23
:1020D000C0F3846007E00321286802F043FF90FA10
:1020E000A0F0B0FA80F02168C1F3120119B921689B
:1020F000C1F3846104E0216891FAA1F1B1FA81F1A0
:10210000884204D100220321286802F073FF286866
:1021100002F036FF002870D12868E2682168D0F804
:10212000B0C0C1F312032CEA030C02F0180B5F4B92
:1021300023FA0BF30B404CEA030CC0F8B0C000BF0D
:102140005849E068884258D12368C3F312031BB989
:102150002368C3F3846304E0236893FAA3F3B3FA18
:1021600083F35B1C03F01F03092B3ED82368C3F3E2
:1021700012031BB92368C3F3846304E0236893FA52
:10218000A3F3B3FA83F35B1C03F01F034FF0010CBE
:102190000CFA03FC2368C3F312031BB92368C3F3CF
:1021A000846304E0236893FAA3F3B3FA83F35B1C1C
:1021B00003F01F034CEA836C2368C3F312031BB9BB
:1021C0002368C3F3846304E0236893FAA3F3B3FAA8
:1021D00083F35B1C03F01F0303EB43034FF0000B7F
:1021E0004BEA03534CEA03033FE02368C3F31203B3
:1021F00023B92368C3F3846305E03BE0236893FAC3
:10220000A3F3B3FA83F35B1C03F01F034FF0010C3D
:102210000CFA03FC2368C3F312031BB92368C3F34E
:10222000846304E0236893FAA3F3B3FA83F35B1C9B
:1022300003F01F034CEA836C2368C3F312031BB93A
:102240002368C3F3846304E0236893FAA3F3B3FA27
:1022500083F35B1C03F01F030A3B03EB43034FF0C4
:10226000007B4BEA03534CEA03031946A268286833
:1022700002F0A6FE0E492068084078B300BF0D4862
:10228000806800F0E07600BF0B49206888422DD1BD
:1022900006F4000050BB0949286888424ED146F434
:1022A00000010DE000007F4000F0FF03FFFF07008A
:1022B0000000088000030450000052C700000450D2
:1022C000224802F091FE224800682249B0FBF1F05A
:1022D000401C00EB40008000009003E016E00098F6
:1022E000401E009000980028F9D127E01A49206884
:1022F00088420CD106F0807048B918492868884295
:102300001CD146F08071114802F06EFE16E01449AF
:102310002068884212D106F4800078B90F492868F5
:1023200088420BD146F48001084802F05DFE05E0CA
:10233000686D40F0200068654FF0010A00BF002082
:1023400085F8500000BF5046BAE500000003045075
:1023500020000020400D0300000084CB000004504A
:10236000010000807047704770472DE9F047044630
:102370004FF0000A206805682068466805F00200F2
:10238000022811D106F0020002280DD1606D00F084
:10239000100018B9606D40F4006060652046FFF7DA
:1023A00075FD02202168086005F00400042803D1AF
:1023B00006F00400042807D005F00800082841D1E1
:1023C00006F0080008283DD1606D00F0100018B933
:1023D000606D40F400706065206802F0E0FD10B3AD
:1023E0002068C76807F40050B0F5005F24D020686B
:1023F000006800F0080008281ED1206802F0CAFD1D
:1024000090B92068406820F00C0021684860606D39
:1024100020F480706065606D00F4805018B9606DC4
:1024200040F00100606507E0606D40F010006065FD
:10243000A06D40F00100A0652046FFF793FF0C203F
:102440002168086005F02000202803D106F0200054
:10245000202807D005F04000402855D106F0400064
:10246000402851D1606D00F0100018B9606D40F443
:10247000005060652068C16C01F0C00109B90121FC
:1024800000E00021894600BF206802F088FD8046F8
:102490002068C768B9F1000F30D007F0007028B18C
:1024A000B8F1000F2AD007F4005038BB206800684C
:1024B00000F04000402821D107F40010F0B9206856
:1024C00002F059FD90B92068406820F06000216852
:1024D0004860606D20F480506065606D00F480702D
:1024E00060B9606D40F00100606507E0606D40F02C
:1024F00010006065A06D40F00100A0652046FFF768
:10250000C6FC60202168086005F0800080280DD19D
:1025100006F08000802809D1606D40F4803060654D
:10252000204600F06DF980202168086005F4807075
:10253000B0F5807F0FD106F48070B0F5807F0AD1AE
:10254000606D40F4003060652046FFF7A2FC4FF458
:1025500080702168086005F40070B0F5007F0FD12D
:1025600006F40070B0F5007F0AD1606D40F4802061
:1025700060652046FFF78EFC4FF40070216808600C
:1025800005F01000102820D106F0100010281CD1F2
:10259000606B10B94FF0010A06E02068C06800F0D7
:1025A000010008B14FF0010ABAF1010F0AD1606DC4
:1025B00040F480606065A06D40F00200A065204698
:1025C000FFF7D2FE10202168086005F48060B0F5A6
:1025D000806F13D106F48060B0F5806F0ED1606D0E
:1025E00040F480406065A06D40F00800A0654FF4A5
:1025F0008060216808602046FFF74AFCBDE8F0874C
:102600002DE9F84304464FF000090020009014B96A
:102610000120BDE8F883206920B12020005D012859
:1026200000D100BF606D30B9204600F0EBF800200B
:10263000A06584F8500020688168C1F3407131B111
:1026400020688168674A1140816000BF00BF206830
:1026500002F09BFCB0B920688168634A114041F0E8
:102660008051816000BF614800686149B0FBF1F0B2
:10267000401C4000009002E00098401E009000982E
:102680000028F9D1206802F080FC48B9606D40F064
:1026900010006065A06D40F00100A0654FF00109D9
:1026A000206802F077FC0646606D00F010000028FC
:1026B0007ED1002EFCD1606D20F4807040F00200CD
:1026C0006065206802F05CFC68B94A4802F058FC7A
:1026D00048B960684849896821F47C110143464A39
:1026E000916000BF00BF607E616B41EA4030E168ED
:1026F0000843A16808432021095D40EA01452020E4
:10270000005D012803D1A08C401E45EA4045A06A27
:1027100028B1208D00F47070E16A084305432068F9
:10272000C0683649084028432168C860206802F024
:1027300031FC8046206802F01EFC0746B8F1000F0D
:102740002CD127BB207E002141EA803194F8300053
:1027500041EA40052068C06844F2020188432843EA
:102760002168C86094F83800012811D1E06B40F06E
:102770000101206C0843616C0843A16C0843216887
:10278000096940F2FC72914308432168086105E041
:102790002068006920F00100216808612069012893
:1027A0000BD12068006B20F00F00E169491E00E0AA
:1027B00010E008432168086305E02068006B20F002
:1027C0000F0021680863606D20F0020040F00100F6
:1027D000606505E0606D40F0100060654FF0010934
:1027E000484616E7C0FFFF5FC0FFFF7F20000020C4
:1027F000400D0300000004500003045007C0F0FF28
:102800007047000010B59EB00446142119A8FDF7CA
:1028100003FF5C2102A8FDF7FFFE344920688842CF
:1028200062D14FF480400290800316900120039003
:1028300001210491102105910721069102210791A0
:1028400008910106099102A800F072FC08B1FFF797
:10285000E4FA00BF2648C06C40F400502449C86424
:102860000846C06C00F40050019000BF00BF00BFDC
:102870000846C06C40F00100C8640846C06C00F017
:102880000100019000BF00BF0F2019900B201A908B
:1028900000201B9019A94FF0904000F02BFA15482A
:1028A0001549086000204860002113488160C1601C
:1028B0008021016189004161890081612021C1611C
:1028C0000902016200F02EF908B1FFF7A6FA00BF75
:1028D0000948E064846200BF00221146122000F023
:1028E00087FB122000F070FB1EB010BD00000450EA
:1028F00000100240080002400C2100202DE9F041A8
:1029000004460E461746206802F044FB002852D1C8
:1029100000BF94F85000012802D10220BDE8F081E8
:10292000012084F8500000BF2046FEF7A9FF0546AD
:10293000002D3BD1606D40F60161884340F480700A
:102940006065606D00F4805020B1A06D20F006003D
:10295000A06501E00020A0651848E16CC862184835
:10296000E16C08631748E16C48631C20216808602B
:1029700000BF002084F8500000BF2068406840F08D
:102980001000216848602068C06840F0010021689C
:10299000C860226802F140013B463246E06C00F01C
:1029A00047F90546206802F003FB05E000BF002060
:1029B00084F8500000E002252846AFE7C117000860
:1029C000711800085318000870B50446002594F8E3
:1029D0002500022803D00420E063012520E02068C0
:1029E000006820F00E00216808602068006820F070
:1029F00001002168086094F8440000F01C010120E7
:102A00008840216C4860012084F8250000BF002028
:102A100084F8240000BFA06B10B12046A16B88474A
:102A2000284670BD70B50446206C056820680668AD
:102A300094F8440000F01C01042088402840E0B1D4
:102A400006F00400C8B12068006800F0200028B932
:102A50002068006820F004002168086094F84400B1
:102A600000F01C0104208840216C4860206B002885
:102A700056D02046216B884752E094F8440000F07D
:102A80001C0102208840284018B306F0020000B361
:102A90002068006800F0200040B92068006820F03D
:102AA0000A0021680860012084F8250094F8440099
:102AB00000F01C0102208840216C486000BF00200B
:102AC00084F8240000BFE06A50B32046E16A8847DA
:102AD00026E094F8440000F01C01082088402840BB
:102AE000F0B106F00800D8B12068006820F00E00B0
:102AF0002168086094F8440000F01C01012088401F
:102B0000216C48600120E06384F8250000BF0020AC
:102B100084F8240000BF606B10B12046616B8847C9
:102B200070BD000010B5014609B9012010BD3E4B33
:102B3000086898420BD23D4B0868C01A1423B0FBBA
:102B4000F3F0800048643948083808640AE0364BDE
:102B50000868C01A1423B0FBF3F0800048643248C0
:102B600008380864022081F825000868026847F6E2
:102B7000F0708243D1E9020318430B6918434B6993
:102B800018438B691843CB6918430B6A18430243F7
:102B9000086802608868B0F5804F3AD0234B083B44
:102BA000086C98421BD1D0F8A80091F8443003F08B
:102BB0001C040F23A34098431C4BA033186091F8CA
:102BC000443003F01C0348689840184B083BD3F886
:102BD000A8301843154B083BC3F8A80019E0124869
:102BE000A030006891F8443003F01C040F23A34088
:102BF00098430D4BA033186091F8443003F01C0348
:102C000048689840084BA0331B681843064BA03314
:102C100018600020C863012081F82500002081F899
:102C2000240000BF82E700000804024008000240C0
:102C30002DE9F04104460D4616461F464FF00008A8
:102C400000BF94F82400012802D10220BDE8F081E1
:102C5000012084F8240000BF94F8250001282CD11D
:102C6000022084F825000020E0632068006820F03E
:102C70000100216808603B46324629462046FFF79E
:102C8000B3F8206B30B12068006840F00E00216876
:102C900008600BE02068006820F0040021680860EC
:102CA0002068006840F00A00216808602068006819
:102CB00040F001002168086006E000BF002084F8B1
:102CC000240000BF4FF002084046BFE770B504463D
:102CD00000F00CF906462546681C10B1044800783F
:102CE000054400BF00F002F9801BA842FAD370BD72
:102CF0001C00002078B503460022CBE00126964058
:102D00000D6805EA0604002C72D04D68012D08D02C
:102D10004D68022D05D04D68112D02D04D68122D41
:102D200013D1986856000325B540A8435600CD68D6
:102D3000B54028439860586801259540A8430D790F
:102D4000C5F30015954028435860D8685600032500
:102D5000B540A84356008D68B5402843D8604D68FB
:102D6000022D02D04D68122D13D1D60803F1200593
:102D700055F826005507EE0E0F25B540A843560717
:102D8000F60E0D69B5402843D60803F1200545F835
:102D90002600186856000325B540A8430D7905F0B4
:102DA00003055600B540284318604D6805F080556E
:102DB000B5F1805F6DD100BF394D2D6E45F0010535
:102DC000374E356635462D6E05F00105009500BF7E
:102DD00000BF4FEAB635960855F8260095072E0F26
:102DE0000F25B540A843B3F1904F02D1002515E05F
:102DF0004FE02C4DAB4201D101250FE02A4DAB42F3
:102E000001D102250AE0294DAB4201D1032505E09D
:102E1000274DAB4201D1042500E007259607360F68
:102E2000B5402843234D960845F82600224D2868D2
:102E3000A0434D6805F48035B5F5803F00D12043AF
:102E40001D4D28602D1D2868A0434D6805F40035F0
:102E5000B5F5003F00D12043174D2D1D28602D1DD5
:102E60002868A0434D6805F48015B5F5801F00D192
:102E70002043114D083528602D1D2868A0434D685A
:102E800005F40015B5F5001F00D120430A4D0C359F
:102E90002860521C0D68D540002D7FF42FAF78BDFF
:102EA000001002400004004800080048000C0048E0
:102EB0000010004808000140000401400246136968
:102EC0000B400BB1012000E00020704710B54269B3
:102ED00021EA020302EA010443EA0443836110BDCC
:102EE0000AB1816100E0816270470000014800681A
:102EF0007047000014000020034800680349097867
:102F00000844014908607047140000201C0000209C
:102F100010B50024032000F0A9F80F2000F008F8F5
:102F200008B1012401E000F02FF8204610BD000098
:102F300070B50446002511480078D8B10F480078D4
:102F40004FF47A71B1FBF0F00D490968B1FBF0F66E
:102F5000304601F0CFF958B9102C07D20022214693
:102F6000501E00F045F80748046004E0012502E027
:102F7000012500E00125284670BD00001C0000204E
:102F8000200000201800002008B500BF0D48006E8A
:102F900040F001000B4908660846006E00F0010091
:102FA000009000BF00BF00BF0846806D40F0805019
:102FB00088650846806D00F08050009000BF00BF1B
:102FC00008BD0000001002400146084600280DDB45
:102FD00000BF00BF00F01F0301229A4043099B007D
:102FE00003F1E023C3F8002100BF00BF00BF70471A
:102FF0002DE9F05F80460D461646002704F048F89C
:10300000074639462A46334601F00700C0F1070A51
:10301000BAF1040F02D94FF0040A01E0C0F1070A27
:10302000D14600F1040ABAF1070F02D24FF0000AAC
:1030300001E0A0F1030AD4464FF0010A0AFA09FAA6
:10304000AAF1010A0AEA020A0AFA0CFA4FF0010B85
:103050000BFA0CFBABF1010B0BEA030B4AEA0B0476
:103060002146404604F01CF8BDE8F09F00BF00F088
:103070000702064B19684FF6FF031940044B0B4338
:1030800043EA0221014B196000BF70470CED00E0DC
:103090000000FA050246B2F5007F2AD11D480068FB
:1030A00000F4C060B0F5007F32D01A48006820F408
:1030B000C06040F40070174B186017480068322356
:1030C0005843164BB0FBF3F0411C00E0491E114879
:1030D000406900F48060B0F5806F01D10029F5D11E
:1030E0000C48406900F48060B0F5806F10D1032077
:1030F00070470848006800F4C060B0F5806F07D0E2
:103100000448006820F4C06040F48060014B1860FF
:103110000020EDE7007000402000002040420F003A
:103120000248006800F4C060704700000070004072
:103130002DE9F84304460025A846208800F40060E5
:10314000B0F5006F26D1606C68B1B0F5000F03D008
:10315000B0F5400F0ED10CE0D548C06840F4803087
:10316000D349C86008E00021201D03F0ADF90546F1
:1031700002E001E0012500BF00BF55B9CC4888300E
:10318000006820F44000616C0843C949C1F8880018
:1031900000E0A846206800F40030B0F5003F75D18B
:1031A0004FF00009C248806D012121EA107078B10A
:1031B00000BFBF48806D40F08050BD49886508461B
:1031C000806D00F08050009000BF00BF4FF00109FB
:1031D000B848006840F48070B6490860FFF786FE82
:1031E000074606E0FFF782FEC01B022801D903252F
:1031F00005E0B048006800F480700028F2D000BFFD
:103200007DBBAB489030006800F44076CEB1A06D35
:10321000B04216D0A6489030006820F44076A4480A
:10322000D0F8900040F48030A149C1F890000846E1
:10323000D0F8900020F48030C1F890000846C0F823
:10324000906006F00100A8B1FFF750FE074609E0C4
:10325000FFF74CFEC01B41F28831884202D903259A
:1032600007E016E092489030006800F00200002865
:10327000EED000BF5DB98E489030006820F44070F9
:10328000A16D08438A49C1F8900003E00CE0A8460C
:1032900000E0A846B9F1010F05D18548806D20F006
:1032A00080508349886500BF207800F0010048B154
:1032B0007F488830006820F00300216A08437C4979
:1032C000C1F88800207800F00200022809D178486F
:1032D0008830006820F00C00616A08437449C1F826
:1032E0008800207800F00400042809D17048883054
:1032F000006820F03000A16A08436D49C1F88800D9
:10330000207800F02000202809D169488830006822
:1033100020F44060E16A08436549C1F888002088CC
:1033200000F40070B0F5007F09D161488830006872
:1033300020F44020E16B08435D49C1F888002088F3
:1033400000F48060B0F5806F09D15948883000687A
:1033500020F44010216C08435549C1F888002078BA
:1033600000F04000402809D151488830006820F41E
:103370004050216B08434E49C1F88800207800F086
:103380008000802809D14A488830006820F44040F5
:10339000616B08434649C1F88800208800F48070BA
:1033A000B0F5807F09D142488830006820F4403071
:1033B000A16B08433E49C1F88800206800F4002052
:1033C000B0F5002F1FD13A488830006820F04060E7
:1033D000A16C0843364988310860A06CB0F1006FD9
:1033E00006D13348C06840F480103149C8600AE013
:1033F000A06CB0F1806F06D10121201D03F064F8AC
:10340000054605B1A846206800F48020B0F5802F5D
:103410001FD127488830006820F04060E16C0843E5
:10342000234988310860E06CB0F1006F06D1204874
:10343000C06840F480101E49C8600AE0E06CB0F13A
:10344000806F06D10121201D03F03EF8054605B12D
:10345000A846208800F48040B0F5804F14D114486D
:103460008830006820F04050216D084310498831B1
:103470000860206DB0F1805F06D10221201D03F0AD
:1034800023F8054605B1A846208800F40040B0F5B1
:10349000004F09D106488830006820F08040616DF7
:1034A00008430349C1F888004046BDE8F88300009E
:1034B00000100240007000402DE9F04104460D4626
:1034C00014B90120BDE8F0815548006800F00700FC
:1034D000A8420ED25248006820F007002843504905
:1034E00008600846006800F00700A84201D00120EB
:1034F000E8E7207800F00100002840D06068032849
:1035000006D14848006800F00070D8B90120D9E71A
:103510006068022806D14348006800F4003088B98A
:103520000120CFE7606830B93E48006800F0020033
:1035300040B90120C6E73B48006800F4806008B944
:103540000120BFE73748806820F003006168084326
:1035500034498860FFF7CAFC064608E0FFF7C6FC5E
:10356000801B41F28831884201D90320AAE72D4807
:10357000806800F00C006168B0EB810FEED120781C
:1035800000F00200022807D12648806820F0F000F1
:10359000A1680843234988602148006800F00700BB
:1035A000A8420ED91E48006820F0070028431C4995
:1035B00008600846006800F00700A84201D001201A
:1035C00080E7207800F00400042807D115488068BF
:1035D00020F4E060E168084312498860207800F038
:1035E0000800082808D10F48806820F4605021693D
:1035F00040EAC1000B49886000F01CF8094989685D
:10360000C1F30311084A515C01F01F01C84007498A
:10361000086007480068FFF78BFC0746384651E70B
:103620000020024000100240F4A200082000002008
:1036300018000020F0B500230020DFF8D4C0DCF82B
:1036400008C00CF00C01DFF8C8C0DCF80CC00CF0AE
:10365000030719B10C291ED1012F1CD1DFF8B0C00E
:10366000DCF800C00CF0080CBCF1000F06D1DFF84C
:10367000A0C0DCF894C0CCF3032305E0DFF890C0D1
:10368000DCF800C0CCF30313DFF888C05CF823300B
:1036900041B9184606E0042901D11F4802E0082973
:1036A00000D11E480C2932D1DFF864C0DCF80CC010
:1036B0000CF00304012C09D0022C02D0032C04D1FD
:1036C00001E0154A04E0154A02E000BF1A4600BFB7
:1036D00000BFDFF83CC0DCF80CC0CCF3021C0CF1DE
:1036E0000106DFF82CC0DCF80CC0CCF3062C0CFB78
:1036F00002FCBCFBF6F2DFF818C0DCF80CC0CCF31F
:10370000416C0CF1010C4FEA4C05B2FBF5F0F0BD39
:10371000001002400CA300080024F40000127A00FC
:103720002DE9F843044614B90120BDE8F883F948AF
:10373000806800F00C06F748C06800F003072078A6
:1037400000F01000102877D11EB10C2E76D1012F79
:1037500074D1F048006800F0020018B1A06908B9FF
:103760000120E2E7EB48216A006800F0080020B180
:10377000E848006800F0F00005E0E6489430006892
:1037800000F47060000981421FD9206A02F060FFD6
:1037900008B10120C9E700BFDE48006840F008001A
:1037A000DC4908600846006820F0F000216A084300
:1037B000D849086000BF0846406820F47F40E169AE
:1037C00040EA0120D34948601FE000BFD1480068AB
:1037D00040F00800CF4908600846006820F0F0007B
:1037E000216A0843CB49086000BF0846406820F4BE
:1037F0007F40E16940EA0120C64948602EB9206A4D
:1038000002F026FF08B101208FE7FFF713FFC1493F
:103810008968C1F30311C04A515C01F01F01C8401F
:10382000BE490860BE480068FFF782FB8046B8F1D9
:10383000000F4ED0404678E74BE0FFE7A06980B329
:10384000B448006840F00100B2490860FFF74EFB41
:10385000054606E0FFF74AFB401B022801D903207A
:1038600063E7AC48006800F002000028F2D000BF17
:10387000A848006840F00800A649086008460068AB
:1038800020F0F000216A0843A249086000BF084602
:10389000406820F47F40E16940EA01209D4948608A
:1038A00017E0FFE79B48006820F001009949086095
:1038B000FFF71CFB054606E0FFF718FB401B02283C
:1038C00001D9032031E79348006800F00200002886
:1038D000F2D1207800F0010000285CD0082E03D03F
:1038E0000C2E0AD1032F08D18A48006800F400305A
:1038F00088B3606878BB012017E700BF6068B0F547
:10390000803F06D18348006840F4803081490860D8
:103910001AE06068B0F5A02F0BD17E48006840F433
:1039200080207C4908600846006840F480300860C8
:103930000AE07848006820F480307649086008463C
:10394000006820F48020086000BF606890B1FFF735
:10395000CDFA054607E01EE0FFF7C8FA401B6428D1
:1039600001D90320E1E66B48006800F4003000282C
:10397000F2D010E0FFF7BAFA054606E0FFF7B6FA14
:10398000401B642801D90320CFE66248006800F498
:1039900000300028F2D1207800F00200022852D135
:1039A000042E03D00C2E14D1022F12D159480068D6
:1039B00000F4806018B1E06808B90120B5E6554808
:1039C000406820F0F850217C40EA0160514948608D
:1039D00039E0E06800B34F48006840F480704D491A
:1039E0000860FFF783FA054606E0FFF77FFA401B01
:1039F000022801D9032098E64648006800F4806058
:103A00000028F2D04348406820F0F850217C40EA7A
:103A100001604049486016E03E48006820F480702C
:103A20003C490860FFF762FA054606E0FFF75EFAD8
:103A3000401B022801D9032077E63648006800F4CD
:103A400080600028F2D1207800F00800082836D1E4
:103A50006069D0B12F489430006840F001002D49D2
:103A6000C1F89400FFF742FA054606E0FFF73EFA78
:103A7000401B022801D9032057E6264894300068ED
:103A800000F002000028F1D019E0224894300068CC
:103A900020F001001F49C1F89400FFF727FA0546FE
:103AA00006E0FFF723FA401B022801D903203CE679
:103AB00018489430006800F002000028F1D1207806
:103AC00000F00400042872D14FF000091148806D05
:103AD00000F0805078B900BF0E48806D40F08050F3
:103AE0000C4988650846806D00F08050009000BF4A
:103AF00000BF4FF001090B48006800F4807000BB64
:103B00000848006840F4807006490860FFF7EEF945
:103B1000054610E000100240F4A20008200000203A
:103B20001800002000700040FFF7E0F9401B022859
:103B300001D90320F9E5D048006800F4807000281E
:103B4000F2D000BFA068012808D1CC48006840F03E
:103B50000100CA499039C1F8900021E0A068052809
:103B60000FD1C648006840F00400C4499039C1F83C
:103B700090000846D0F8900040F00100C1F8900095
:103B80000EE0BE48006820F00100BC499039C1F841
:103B900090000846D0F8900020F00400C1F8900092
:103BA00000BFA068A0B1FFF7A1F9054609E02EE02B
:103BB000FFF79CF9401B41F28831884201D903206C
:103BC000B3E5AE48006800F002000028F0D012E033
:103BD000FFF78CF9054608E0FFF788F9401B41F232
:103BE0008831884201D903209FE5A448006800F08D
:103BF00002000028F0D1B9F1010F07D19F48903899
:103C0000806D20F080509D499039886500BF2078F4
:103C100000F02000202838D1606AD8B197480830D9
:103C2000006840F0010095499039C1F89800FFF70D
:103C30005DF9054606E0FFF759F9401B022801D956
:103C4000032072E58D480830006800F0020000286B
:103C5000F1D01AE089480830006820F00100874957
:103C60009039C1F89800FFF741F9054606E0FFF7E3
:103C70003DF9401B022801D9032056E57F48083052
:103C8000006800F002000028F1D1A06A00287DD071
:103C9000A06A02287BD179489038C76807F00301F1
:103CA000E06A814225D107F07001206B401EB1EB24
:103CB000001F1ED107F4FE41606BB1EB002F18D13D
:103CC00007F078413820005DB1EBC06F11D107F4E7
:103CD000C001A08F0122C2EB5000B1EB405F08D1C0
:103CE00007F0C0614020005DC2EB5000B1EB406FB7
:103CF00066D00C2E62D061489038006800F0806079
:103D000008B1012011E55D489038006820F080700E
:103D10005A4990390860FFF7E9F8054606E0FFF7D1
:103D2000E5F8401B022801D90320FEE453489038EF
:103D3000006800F000700028F1D1D4E90B10401E9B
:103D400041EA0011606B41EA0021A08F0122C2EB21
:103D5000500041EA40514020005DC2EB500041EA72
:103D600040613820005D41EAC06044499039C9682B
:103D7000434A1140084341499039C86008460068E9
:103D800040F0807008600846C06801E05BE03DE0FC
:103D900040F08070C860FFF7A9F8054606E0FFF71D
:103DA000A5F8401B022801D90320BEE4334890380F
:103DB000006800F000700028F1D05AE00120B4E45F
:103DC0002E489038006800F00070E0BB2B48903817
:103DD000006840F080702949903908600846C06842
:103DE00040F08070C860FFF781F8054606E0FFF7F5
:103DF0007DF8401B022801D9032096E41F48903823
:103E0000006800F000700028F1D032E00C2E2ED0B7
:103E10001A489038006820F080701849903908607E
:103E20000846006800F0006020B90846C06820F02D
:103E30000300C86011489038C068124908400F4913
:103E40009039C86000E014E0FFF750F8054606E03E
:103E5000FFF74CF8401B022801D9032065E407480E
:103E60009038006800F000700028F1D101E00120D6
:103E70005BE4002059E40000007000409010024014
:103E80008C809D01FFFFEEFE70470000F8B50446F0
:103E90002068466820688568C5F3801048B905F039
:103EA000010030B1C6F3801018B12046E16C88479C
:103EB000F8BDC5F3400030B1C6F3C01018B12046BC
:103EC000216D8847F4E7C5F3401030B9C5F3801081
:103ED00018B9C5F3002000287CD0C6F34010002894
:103EE0007DD0C5F38010F0B194F85D0003280ED0AA
:103EF000206E40F00400206600BF00200090206883
:103F0000C068009020688068009000BF0BE000BF90
:103F1000002000902068C0680090206880680090B1
:103F200000BF00BFC4E7C5F3401088B1206E40F069
:103F30000100206600BF002000902068806800908B
:103F40002068006820F040002168086000BF00BFC2
:103F5000C5F3002058B1206E40F00800206600BF75
:103F60000020009020688068009000BF00BF206E95
:103F700078B32068406820F0E000216848600120A4
:103F800084F85D0006F00200022802D006F001006D
:103F900008B32068406820F0030021684860A06DE5
:103FA00050B11048A16D8863A06DFEF70DFD18B1EA
:103FB000206E40F040002066606D50B10948616D90
:103FC0008863606DFEF700FD18B1206E40F0400080
:103FD000206603E003E02046FFF756FF68E700BFD6
:103FE00066E70000FD66000870B504460CB90120C4
:103FF00070BD606A38B96068B0F5827F00D105E0B5
:104000000021E16102E00021216161610021A162E2
:1040100094F85D0028B9002084F85C00204600F088
:104020005BF8022084F85D002068006820F0400002
:1040300021680860E068B0F5E06F01D9002501E073
:104040004FF48055E068B0F5706F05D0E068B0F5CA
:10405000E06F01D00021A162A08800F48270218964
:1040600001F404410843217C01F002010843217D51
:1040700001F001010843218B01F400710843217F05
:1040800001F0380108432021095D01F08001084357
:10409000218D01F400510843216808600421A069C2
:1040A00001EA104094F8241001F01001084394F83C
:1040B000341001F008010843A18901F4706108433C
:1040C00005F48051084321684860002020660120E3
:1040D00084F85D0000208BE710B586B004461421FB
:1040E00001A8FCF799FA2949206888424CD100BF01
:1040F0002748806D40F40040254988650846806D5A
:1041000000F40040009000BF00BF00BF0846C06C34
:1041100040F00400C8640846C06C00F00400009041
:1041200000BF00BF4FF4A050019002200290002079
:104130000390032004900620059001A91548FEF77E
:10414000D9FD15481549086003204860102113481F
:1041500081600021C1608021016100214161816194
:10416000C1610162FEF7DEFC08B1FDF756FE00BF3B
:104170000A486065846200BF002202213320FEF7F6
:1041800037FF3320FEF720FF06B010BD003C004093
:1041900000100240000800481C040240B821002022
:1041A0002DE9F04104460E461546002700BF94F85D
:1041B0005C00012802D10220BDE8F081012084F8D2
:1041C0005C0000BF94F85D00012801D0022782E066
:1041D00006B10DB901277EE0032084F85D000020C0
:1041E0002066A663A587E58720642065E064A4F8BF
:1041F0004400A4F84600A068B0F5004F0BD1206839
:10420000006820F04000216808602068006840F4E1
:104210008040216808603348616D08633248616DF1
:10422000C8623248616D48630020616D8863206810
:10423000406820F4804021684860E068B0F5E06F95
:104240001DD8606D8069B0F5806F18D1E08F00F0E7
:10425000010048B92068406820F480402168486027
:10426000E08F4010E0870AE02068406840F480401A
:1042700021684860E08F012101EB6000E087E38F57
:10428000D4F800C00CF10C02A16B606DFEF7D0FCFD
:1042900040B1206E40F0100020660127012084F814
:1042A0005D0018E02068006800F04000402805D05C
:1042B0002068006840F0400021680860206840687D
:1042C00040F02000216848602068406840F002000B
:1042D0002168486000BF00BF002084F85C0000BF78
:1042E000384669E73B67000849670008136700081C
:1042F0007047704770B504462546681EB0F1807F50
:1043000001D301200FE0681E4FF0E02148610F212A
:104310004FF0FF3002F0C4FE00204FF0E021886132
:1043200007200861002070BD70477047704700008B
:1043300010B50346002200BF93F83C00012801D1CC
:10434000022010BD012083F83C0000BF22F0FF00D6
:10435000CC6840EA040222F440708C6840EA04020F
:1043600022F480604C6840EA040222F400600C6889
:1043700040EA040222F480500C6940EA040222F46C
:1043800000504C6940EA040222F480408C6A40EA02
:10439000040222F470200C8B40EA04420D4C186891
:1043A000A0420ED122F470008C8C40EA045222F01C
:1043B0008070CC6940EA040222F000700C6A40EA86
:1043C00004021868426400BF002083F83C0000BF6C
:1043D00000BFB6E7002C014030B502460B4600BFD7
:1043E00092F83C00012801D1022030BD012082F862
:1043F0003C0000BF022082F83D0010684168106850
:104400008468154D1068A84203D121F470015868E2
:10441000014321F0700118680143106841600E4D9E
:104420001068A84207D01068B0F1804F03D00B4D40
:104430001068A84205D124F08004986804431068ED
:104440008460012082F83D0000BF002082F83C001B
:1044500000BF00BFC9E70000002C01400040014040
:1044600070B504460D4615B994F844000BE0042DD0
:1044700002D14520005D06E0082D02D14620005DF6
:1044800001E04720005D012801D0012070BD1DB969
:10449000022084F844000EE0042D03D102214520BF
:1044A000015508E0082D03D102214620015502E004
:1044B00002214720015504222946206802F0EBFB27
:1044C0002068406C40F4004021684864124920682C
:1044D000884207D02068B0F1804F03D00F49206890
:1044E000884210D1206880680D4900EA0106062E36
:1044F0000FD0B6F5803F0CD02068006840F0010076
:104500002168086005E02068006840F0010021682B
:1045100008600020BAE70000002C01400040014084
:104520000700010070B504460D46002229462068A8
:1045300002F0B1FB00BF2068006A41F2111108408F
:1045400050B92068006A8910084028B92068406C7A
:1045500020F400402168486400BF00BF2068006A62
:1045600041F21111084050B92068006A89100840D2
:1045700028B92068006820F001002168086000BFA9
:104580001DB9012084F844000EE0042D03D101215F
:104590004520015508E0082D03D101214620015591
:1045A00002E0012147200155002070BD10B50446EE
:1045B0000CB9012010BD94F83D0028B9002084F802
:1045C0003C00204600F02AF8022084F83D00211D1E
:1045D000206802F015FB012084F8480000BF84F831
:1045E0003E0001213F200155402001554120015549
:1045F000422001554320015500BF00BF012084F82F
:10460000440045200155462001554720015500BF73
:10461000012084F83D000020CCE7000038B50446B6
:104620001949206888422DD100BF1848006E40F417
:104630000060164908660846006E00F400600090AD
:1046400000BF00BF002211461820FEF7D1FC182041
:10465000FEF7BAFC002211461920FEF7C9FC19200A
:10466000FEF7B2FC002211461A20FEF7C1FC1A2008
:10467000FEF7AAFC002211461B20FEF7B9FC1B2006
:10468000FEF7A2FC38BD0000002C014000100240E3
:104690002DE9F04104460D4600BF94F83C00012886
:1046A00002D10220BDE8F081012084F83C0000BF67
:1046B000022084F83D00206886683748064026F4CA
:1046C0007F46206886602868502833D00CDC20287C
:1046D00050D004DC00284BD0102851D149E03028BC
:1046E00049D040284CD139E060282DD0702807D01F
:1046F000B0F5805F03D0B0F5005F41D10DE040E040
:10470000D5E902136A68206802F0D6FA2068866844
:1047100046F077062068866033E0D5E902136A68C0
:10472000206802F0C9FA2068806840F4804021685F
:10473000886026E0EA686968206802F031FC502150
:10474000206802F0C4FA1CE0EA686968206802F098
:104750003AFC6021206802F0BAFA12E0EA6869685F
:10476000206802F01DFC4021206802F0B0FA08E049
:1047700000BF00BF00BF2968206802F0A8FA00E06F
:1047800000BF00BF012084F83D0000BF002084F876
:104790003C0000BF00BF85E788FFFEFF704710B5F3
:1047A000044620680069C0F34000D8B12068C068A2
:1047B000C0F34000B0B16FF0020021680861012031
:1047C00020772068806900F0030018B12046FFF7C9
:1047D000E5FF05E0204600F00BF9204600F0F5F972
:1047E0000020207720680069C0F38000D8B12068DD
:1047F000C068C0F38000B0B16FF0040021680861A8
:10480000022020772068806900F4407018B12046AB
:10481000FFF7C4FF05E0204600F0EAF8204600F06C
:10482000D4F90020207720680069C0F3C000D8B117
:104830002068C068C0F3C000B0B16FF00800216804
:104840000861042020772068C06900F0030018B1D7
:104850002046FFF7A3FF05E0204600F0C9F82046F8
:1048600000F0B3F90020207720680069C0F3001041
:10487000D8B12068C068C0F30010B0B16FF010006C
:1048800021680861082020772068C06900F4407022
:1048900018B12046FFF782FF05E0204600F0A8F897
:1048A000204600F092F9002020772068006900F08F
:1048B000010058B12068C06800F0010030B16FF00D
:1048C000010021680861204600F070FA2068006944
:1048D000C0F3C01058B12068C068C0F3C01030B138
:1048E0006FF08000216808612046FFF71EFD2068F8
:1048F0000069C0F3002058B12068C068C0F3C01040
:1049000030B16FF48070216808612046FFF70CFD1C
:1049100020680069C0F3801058B12068C068C0F3F7
:10492000801030B16FF0400021680861204600F02F
:104930003EFA20680069C0F3401058B12068C06892
:10494000C0F3401030B16FF02000216808612046AC
:10495000FFF7ECFC10BD000010B586B00446142132
:1049600001A8FBF759FE1F492068884237D100BFD4
:104970001D48C06C40F002001B49C8640846C06C6A
:1049800000F00200009000BF00BF00BF0846C06CEE
:1049900040F00100C8640846C06C00F001000090BF
:1049A00000BF00BF4FF48040019002200290002021
:1049B000039004900120059001A90C48FEF79AF994
:1049C0004FF40070019002200290002003900490A8
:1049D0000120059001A94FF09040FEF78BF906B039
:1049E00010BD0000002C01400010024000040048EF
:1049F000704770B504460D46164600BF94F83C005B
:104A0000012801D1022070BD012084F83C0000BFC4
:104A10000C2E51D005DC4EB1042E1ED0082E7AD1BA
:104A200033E0102E60D0142EF9D175E029462068AD
:104A300002F056F92068806940F00800216888611A
:104A40002068806920F004002168886120688069FE
:104A5000296908432168886177E02946206802F0C7
:104A600083F92068806940F40060216888612068CB
:104A7000806920F4806021688861206880692969E4
:104A800040EA0120216888615FE02946206802F041
:104A9000B3F92068C06940F008002168C861206847
:104AA000C06920F004002168C8612068C0692969D4
:104AB00008432168C86148E02946206802F0E4F90B
:104AC0002068C06940F400602168C8612068C0693E
:104AD00020F480602168C8612068C069296940EAC3
:104AE00001202168C86130E02946206802F0FCF905
:104AF0002068406D40F00800216848652068406DDE
:104B000020F00400216848652068406D2969084349
:104B10002168486519E017E02946206802F012FA7A
:104B20002068406D40F40060216848652068406D51
:104B300020F48060216848652068406D296940EA5A
:104B400001202168486500E000BF00BF00BF0020D1
:104B500084F83C0000BF00BF55E710B504460CB90F
:104B6000012010BD94F83D0028B9002084F83C00D5
:104B7000204600F029F8022084F83D00211D20681D
:104B800002F03EF8012084F8480000BF84F83E009F
:104B900001213F200155402001554120015542206F
:104BA00001554320015500BF00BF012084F8440097
:104BB00045200155462001554720015500BF0120E1
:104BC00084F83D000020CCE77047704770B504467C
:104BD0000D4615B994F83E0015E0042D02D13F2092
:104BE000005D10E0082D02D14020005D0BE00C2D8F
:104BF00002D14120005D06E0102D02D14220005D6F
:104C000001E04320005D012801D0012070BD1DB9E5
:104C1000022084F83E001AE0042D03D102213F2037
:104C2000015514E0082D03D10221402001550EE06A
:104C30000C2D03D102214120015508E0102D03D194
:104C400002214220015502E00221432001550122A8
:104C50002946206802F00EF81D492068884207D0D6
:104C60001C492068884203D01B492068884201D132
:104C7000012000E0002028B12068406C40F4004092
:104C80002168486412492068884207D02068B0F142
:104C9000804F03D00F492068884210D12068806877
:104CA0000E4900EA0106062E0FD0B6F5803F0CD063
:104CB0002068006840F001002168086005E0206875
:104CC000006840F001002168086000209EE70000B5
:104CD000002C014000400140004401400700010059
:104CE00030B504460D4600222946206801F0C2FF77
:104CF0002B492068884207D02A492068884203D07F
:104D000029492068884201D1012000E0002090B1AB
:104D100000BF2068006A41F21111084050B92068B4
:104D2000006A8910084028B92068406C20F40040CF
:104D30002168486400BF00BF2068006A41F2111179
:104D4000084050B92068006A8910084028B92068D6
:104D5000006820F001002168086000BF1DB9012033
:104D600084F83E001AE0042D03D101213F200155B3
:104D700014E0082D03D10121402001550EE00C2D37
:104D800003D101214120015508E0102D03D101215B
:104D90004220015502E0012143200155002030BD91
:104DA000002C014000400140004401407047704722
:104DB00000BFFEE7002180F84810704770470000F0
:104DC0000E49097811B1012914D109E00C4991ED7E
:104DD000060AF7EE000A30EE600A81ED060A0AE0E4
:104DE000074991ED070AF7EE000A30EE600A81EDFF
:104DF000070A00E000BF00BF704700002D00002040
:104E000044200020704700000E49097811B10129A3
:104E100014D109E00C4991ED060ADFED0C0A30EEE1
:104E2000600A81ED060A0AE0074991ED070ADFED05
:104E3000070A30EE600A81ED070A00E000BF00BFFC
:104E4000704700002D000020442000200000C842D0
:104E50000849097811B1012908D103E00121054A67
:104E6000117004E00021034A117000E000BF00BF90
:104E7000704700002D0000207047000010B5044668
:104E800000F042FC0D48007820B1012806D002282D
:104E90000CD107E00120094908700DE00220074904
:104EA000087009E000200549087005E000F02CFCBE
:104EB00000200249087000BF00BF10BD2C00002078
:104EC000704700000E49097811B1012914D109E099
:104ED0000C4991ED060AF7EE000A30EE200A81ED4A
:104EE000060A0AE0074991ED070AF7EE000A30EEDC
:104EF000200A81ED070A00E000BF00BF70470000F4
:104F00002D00002044200020704700000E49097841
:104F100011B1012914D109E00C4991ED060ADFED28
:104F20000C0A30EE200A81ED060A0AE0074991EDED
:104F3000070ADFED070A30EE200A81ED070A00E0DC
:104F400000BF00BF704700002D000020442000205B
:104F50000000C8428168024A1140491C81607047C4
:104F6000C0FFFF7F024602F1600000EB810318687A
:104F700000F0F840704701468868C0F3C0007047F1
:104F80000146886800F00100704701468868C0F358
:104F90000070704701468868C0F380007047014682
:104FA000C86800F4406008B9012070470020FCE7A1
:104FB0008168024A1140091D81607047C0FFFF7F70
:104FC00070B500F11404C1F3406504EB85031C685F
:104FD000C1F304560725B540AC43C1F3045502FAAA
:104FE00005F52C431C6070BD826822F0E0720A4314
:104FF0008260704710B500F1600404EB81031C6807
:1050000024F0004414431C6010BD00002DE9F0475B
:105010002DED048B04460D4692461F46DDF8308088
:105020004646206802F0FFFF41EC190B9FED580B3C
:1050300053EC102B03F00AF841EC180B02F0C6FFFA
:105040008146E08AB0F5FA6F21DAC4F8049060680E
:10505000A84201D2761C03E06068A84200D9761EFF
:10506000E08A40F2CF7188420DD16420B5FBF0F0A8
:1050700078430A21B0FBF1F0E060E0686438206119
:1050800060686430A060E08A401CE08275E04248BD
:105090000088401C40490880084600880A280ADD2C
:1050A000002008806068A84201D2761C03E0606896
:1050B000A84200D9761E39480068401C374908606C
:1050C00008460068642858D9322000216422B5FBC4
:1050D000F2F27A430A23B2FBF3F2E2606168D4E9A8
:1050E00003239A4210D9D4E901239A4203D9626872
:1050F0006432626021E0D4E901239A421DD26268E1
:10510000A2F59672626018E0D4E903239A4210D2A5
:10511000D4E901239A4204D96268A2F596726260CA
:105120000BE0D4E901239A4207D2626864326260DC
:1051300003E06268024462604042D4E90023643ABA
:10514000934203D96268A2F596726260226802EB0C
:10515000420252000A23B2FBF3F263689A4205D975
:105160002268D2000A23B2FBF3F26260A160E26817
:1051700022610022094B1A6000BFB6F5E16F01D928
:105180004FF4E1663046BDEC048BBDE8F0870000CB
:105190009A9999999999E93F100000200C000020F4
:1051A00000B587B0182101A8FBF736FA2C482D4925
:1051B00008600020486000212A488160C160012108
:1051C0000161042141610021017601214176042120
:1051D000C161002180F820108162C162012180F844
:1051E00030100021416380F83810FDF709FA08B14A
:1051F000FCF713FE1C480190062002900520039046
:105200007F200490042005900020069001A91548F5
:10521000FCF742FE08B1FCF700FE144801900C2098
:10522000029001A90F48FCF737FE08B1FCF7F5FD25
:105230000F4801901220029001A90A48FCF72CFEA9
:1052400008B1FCF7EAFD0B4801901820029001A973
:105250000448FCF721FE08B1FCF7DFFD07B000BDF4
:1052600000000450A82000202000F0144000201965
:105270008000501D0001802108B500BF1548806CDA
:1052800040F00100134988640846806C00F001007A
:10529000009000BF00BF00BF0846806C40F00200D5
:1052A00088640846806C00F00200009000BF00BFD8
:1052B000002211460B20FDF79BFE0B20FDF784FE1C
:1052C000002211463920FDF793FE3920FDF77CFEC0
:1052D00008BD00000010024000B587B0142102A8EC
:1052E000FBF79AF900BF4C48C06C40F080004A4977
:1052F000C8640846C06C00F08000019000BF00BF89
:1053000000BF0846C06C40F00100C8640846C06C8D
:1053100000F00100019000BF00BF00BF0846C06C54
:1053200040F00400C8640846C06C00F0040001901E
:1053300000BF00BF00BF0846C06C40F00200C86458
:105340000846C06C00F00200019000BF00BF0022C0
:1053500020214FF09040FDF7C3FD00224FF4607113
:105360002E48FDF7BDFD0022E8212D48FDF7B8FDD0
:10537000202002900120039000200490059002A9B3
:105380004FF09040FDF7B6FC2020029000200390E3
:105390000220049002A92148FDF7ACFC03200290F2
:1053A000002003900220049002A91D48FDF7A2FCF2
:1053B0004FF44060029002200390002004900320EC
:1053C00005900720069002A91548FDF793FC4FF4BD
:1053D000607002900120039000200490059002A9C3
:1053E0000E48FDF787FC0820029001200390022060
:1053F00004900020059002A90948FDF77BFCE020FD
:1054000002900120039004900020059002A9044816
:10541000FDF770FC07B000BD001002400008004816
:105420000004004810B51248124908604FF4827019
:10543000486000210F4881604FF4E061C1600021A5
:10544000016141614FF4007181611021C16100214E
:105450000162416281620721C1620021016308216A
:105460004163FEF7C1FD08B1FCF7D7FC10BD000099
:10547000003C00405421002000B599B00020159058
:105480001690179018901290139014901C210BA84E
:10549000FBF7C2F82C216846FBF7BEF82F483049CD
:1054A00008600020486000212D48816040F2CF71E3
:1054B000C1600021016141618161FFF777F808B1A6
:1054C000FCF7ABFC4FF48050159015A92448FFF76A
:1054D000DFF808B1FCF7A1FC2148FFF73EFB08B15B
:1054E000FCF79BFC002012901390149012A91C480A
:1054F000FEF772FF08B1FCF790FC60200B900020D3
:105500000C900D900E900F901090119004220BA90A
:105510001348FFF76EFA08B1FCF77FFC00200090FB
:10552000019002900C200390002004904FF4005052
:1055300005900020069007904FF000700890002022
:1055400009900A9069460648FEF7F2FE08B1FCF79A
:1055500064FC0348FFF700FA19B000BD002C0140BD
:105560000022002000BFFEE710B5034800F006F857
:1055700000F074F810BD0000736400080146024892
:105580000160002070470000080000202DE9F0476E
:10559000044616461F46DDE9088914B1B8F1000F2C
:1055A00003D14FF0FF30BDE8F087184D06E02868C2
:1055B000A04202D12068286003E02D6828680028F6
:1055C000F5D100BF12480068804780197941C4E9CD
:1055D0000201C4F81080C4F814900C4D00BF286874
:1055E00018B9002020602C600DE0D4E902302A6850
:1055F000D2E90212591A904103D2286820602C6027
:1056000001E02D68EBE700BF0020CCE7040000209C
:105610000800002010B50F48046817E00E48006825
:105620008047D4E90232C01A914105D20A48006885
:105630008047A168081A10BD0649206808602069E3
:1056400018B12046D4E9042190472468002CE5D104
:105650000020F0E704000020080000201CB5002016
:105660001C4901220346CDE900101B48FFF78EFFBD
:1056700000201A4905220346CDE900101848FFF71B
:1056800085FF002017490A220346CDE9001016487D
:10569000FFF77CFF002015494FF4FA720346CDE96D
:1056A00000101348FFF772FF002012494FF47A727E
:1056B0000346CDE900101048FFF768FF00200F49AE
:1056C0004FF496720346CDE900100D48FFF75EFFD8
:1056D0001CBD0000756B0008E0230020DD6B000896
:1056E000F8230020556B000810240020B16B00083F
:1056F00028240020056B0008402400202D6B0008A2
:105700005824002000BFFEE710B500F001F810BDDE
:1057100070B500240CE0002506E00020074901EBED
:1057200085110855681CC5B2802DF6DB601CC4B21B
:10573000082CF0DB00F0FAF870BD000044000020F7
:1057400010B504461CB90021A62000F0D9F9012C9F
:1057500003D10021A72000F0D3F910BD10B50446F5
:105760003CB90021C82000F0CBF90021A12000F0B5
:10577000C7F9012C07D10021C02000F0C1F9002198
:10578000A02000F0BDF910BDF0B514460B46CF17B0
:1057900001EB5777C7F3C702CF1701EB5777FF101D
:1057A000A1EBC707FEB20123B340DDB24CB1134BEE
:1057B00003EB80139B5C2B43104F07EB8017BB540C
:1057C0001AE00E4B03EB80139B5CDB430B4F07EBA4
:1057D0008017BB54094B03EB80139B5C2B43074F93
:1057E00007EB8017BB54054B03EB80139B5CDB433B
:1057F000024F07EB8017BB54F0BD000044000020AF
:1058000010B5012280214348FDF76AFB6420FDF7B3
:105810005DFA002280213F48FDF762FB6420FDF71E
:1058200055FA012280213B48FDF75AFB0021AE20AA
:1058300000F066F90021022000F062F9002110203A
:1058400000F05EF90021402000F05AF9002181208B
:1058500000F056F90021CF2000F052F90021A120DC
:1058600000F04EF90021C82000F04AF90021A620DE
:1058700000F046F90021A82000F042F900213F2065
:1058800000F03EF90021D32000F03AF9002108464B
:1058900000F036F90021D52000F032F900218020F7
:1058A00000F02EF90021D92000F02AF90021F12082
:1058B00000F026F90021DA2000F022F90021122060
:1058C00000F01EF90021DB2000F01AF90021402031
:1058D00000F016F90021202000F012F9002102202A
:1058E00000F00EF900218D2000F00AF900211420AB
:1058F00000F006F90021A42000F002F90021A62002
:1059000000F0FEF80021AF2000F0FAF8FFF700FFEA
:1059100010BD00000008004810B5FFF771FF00201F
:10592000FFF70EFF0020FFF719FF10BD70B5002430
:105930001CE004F1B001C8B2002100F0E1F8002140
:10594000084600F0DDF80021102000F0D9F800250D
:1059500008E0084901EB8511085D012100F0D0F84D
:10596000681CC5B2802DF4DB601CC4B2082CE0DBDF
:1059700070BD0000440000202DE9FE4F0746884618
:1059800092461C460197CDF80080082C02D14FF0BA
:1059900006091FE02046E31704EB5373DB10214692
:1059A0004FEAE47C04EB5C7C4FEAEC0CA4EBCC0CFF
:1059B000BCF1000F02D04FF0010C01E04FF0000CE1
:1059C0006344224604EBD27C4FEA6C0C03FB0CF3DD
:1059D00003F0FF09AAF12000C6B200255EE0082C02
:1059E00007D106EB46002F4901EB400010F805B047
:1059F0001DE00C2C07D106EB46002B4901EB800083
:105A000010F805B013E0102C05D1284800EB061063
:105A100010F805B00BE0182C07D106EBC60024499E
:105A200001EB800010F805B001E0BDE8FE8F00201A
:105A300002901CE00BF0010028B1414638460C9A58
:105A4000FFF7A2FE09E00C9808B9012000E0002051
:105A5000024641463846FFF797FE4FEA6B0B08F1C6
:105A6000010000F0FF080298401CC0B202900298AA
:105A70000828DFDB781CC7B2082C0BD004EBD471EC
:105A80004A100199791A8A4204D1019F009808307E
:105A9000C0B20090DDF80080681CC5B24D459EDBA9
:105AA00000BFC2E782850008AA8700081E8C000894
:105AB0000E9200082DE9F84106460F4614461D4691
:105AC000DDF81C8013E0CDF8008022782B463946A3
:105AD0003046FFF751FF082D02D1B01DC6B205E0D8
